{
  "contractName": "PharmacySupplyChain",
  "abi": [
    {
      "inputs": [],
      "stateMutability": "nonpayable",
      "type": "constructor"
    },
    {
      "anonymous": false,
      "inputs": [
        {
          "indexed": false,
          "internalType": "uint256",
          "name": "id",
          "type": "uint256"
        },
        {
          "indexed": false,
          "internalType": "string",
          "name": "name",
          "type": "string"
        },
        {
          "indexed": false,
          "internalType": "uint256",
          "name": "quantity",
          "type": "uint256"
        },
        {
          "indexed": false,
          "internalType": "uint256",
          "name": "mfdDate",
          "type": "uint256"
        },
        {
          "indexed": false,
          "internalType": "uint256",
          "name": "expDate",
          "type": "uint256"
        }
      ],
      "name": "MedicineCreated",
      "type": "event"
    },
    {
      "anonymous": false,
      "inputs": [
        {
          "indexed": false,
          "internalType": "uint256",
          "name": "id",
          "type": "uint256"
        }
      ],
      "name": "MedicineDelivered",
      "type": "event"
    },
    {
      "anonymous": false,
      "inputs": [
        {
          "indexed": false,
          "internalType": "uint256",
          "name": "id",
          "type": "uint256"
        }
      ],
      "name": "MedicineInTransit",
      "type": "event"
    },
    {
      "anonymous": false,
      "inputs": [
        {
          "indexed": false,
          "internalType": "uint256",
          "name": "id",
          "type": "uint256"
        }
      ],
      "name": "MedicineSold",
      "type": "event"
    },
    {
      "inputs": [],
      "name": "medicineCount",
      "outputs": [
        {
          "internalType": "uint256",
          "name": "",
          "type": "uint256"
        }
      ],
      "stateMutability": "view",
      "type": "function",
      "constant": true
    },
    {
      "inputs": [
        {
          "internalType": "uint256",
          "name": "",
          "type": "uint256"
        }
      ],
      "name": "medicines",
      "outputs": [
        {
          "internalType": "uint256",
          "name": "id",
          "type": "uint256"
        },
        {
          "internalType": "string",
          "name": "name",
          "type": "string"
        },
        {
          "internalType": "uint256",
          "name": "quantity",
          "type": "uint256"
        },
        {
          "internalType": "address",
          "name": "manufacturer",
          "type": "address"
        },
        {
          "internalType": "address",
          "name": "pharmacy",
          "type": "address"
        },
        {
          "internalType": "address",
          "name": "consumer",
          "type": "address"
        },
        {
          "internalType": "enum PharmacySupplyChain.MedicineStatus",
          "name": "status",
          "type": "uint8"
        },
        {
          "internalType": "uint256",
          "name": "mfdDate",
          "type": "uint256"
        },
        {
          "internalType": "uint256",
          "name": "expDate",
          "type": "uint256"
        }
      ],
      "stateMutability": "view",
      "type": "function",
      "constant": true
    },
    {
      "inputs": [],
      "name": "owner",
      "outputs": [
        {
          "internalType": "address",
          "name": "",
          "type": "address"
        }
      ],
      "stateMutability": "view",
      "type": "function",
      "constant": true
    },
    {
      "inputs": [
        {
          "internalType": "string",
          "name": "_name",
          "type": "string"
        },
        {
          "internalType": "uint256",
          "name": "_quantity",
          "type": "uint256"
        },
        {
          "internalType": "uint256",
          "name": "_mfdDate",
          "type": "uint256"
        },
        {
          "internalType": "uint256",
          "name": "_expDate",
          "type": "uint256"
        }
      ],
      "name": "createMedicine",
      "outputs": [],
      "stateMutability": "nonpayable",
      "type": "function"
    },
    {
      "inputs": [
        {
          "internalType": "uint256",
          "name": "_id",
          "type": "uint256"
        },
        {
          "internalType": "address",
          "name": "_pharmacy",
          "type": "address"
        }
      ],
      "name": "startMedicineShipment",
      "outputs": [],
      "stateMutability": "nonpayable",
      "type": "function"
    },
    {
      "inputs": [
        {
          "internalType": "uint256",
          "name": "_id",
          "type": "uint256"
        }
      ],
      "name": "receiveMedicine",
      "outputs": [],
      "stateMutability": "nonpayable",
      "type": "function"
    },
    {
      "inputs": [
        {
          "internalType": "uint256",
          "name": "_id",
          "type": "uint256"
        },
        {
          "internalType": "address",
          "name": "_consumer",
          "type": "address"
        }
      ],
      "name": "sellMedicine",
      "outputs": [],
      "stateMutability": "nonpayable",
      "type": "function"
    },
    {
      "inputs": [
        {
          "internalType": "uint256",
          "name": "_id",
          "type": "uint256"
        }
      ],
      "name": "getMedicineStatus",
      "outputs": [
        {
          "internalType": "enum PharmacySupplyChain.MedicineStatus",
          "name": "",
          "type": "uint8"
        }
      ],
      "stateMutability": "view",
      "type": "function",
      "constant": true
    },
    {
      "inputs": [
        {
          "internalType": "uint256",
          "name": "_id",
          "type": "uint256"
        }
      ],
      "name": "getMedicineMfdDate",
      "outputs": [
        {
          "internalType": "uint256",
          "name": "",
          "type": "uint256"
        }
      ],
      "stateMutability": "view",
      "type": "function",
      "constant": true
    },
    {
      "inputs": [
        {
          "internalType": "uint256",
          "name": "_id",
          "type": "uint256"
        }
      ],
      "name": "getMedicineExpDate",
      "outputs": [
        {
          "internalType": "uint256",
          "name": "",
          "type": "uint256"
        }
      ],
      "stateMutability": "view",
      "type": "function",
      "constant": true
    },
    {
      "inputs": [
        {
          "internalType": "uint256",
          "name": "_id",
          "type": "uint256"
        }
      ],
      "name": "getMedicineid",
      "outputs": [
        {
          "internalType": "uint256",
          "name": "",
          "type": "uint256"
        }
      ],
      "stateMutability": "view",
      "type": "function",
      "constant": true
    }
  ],
  "bytecode": "0x608060405234801561001057600080fd5b50336000806101000a81548173ffffffffffffffffffffffffffffffffffffffff021916908373ffffffffffffffffffffffffffffffffffffffff160217905550611865806100606000396000f3fe608060405234801561001057600080fd5b50600436106100a95760003560e01c8063b3e7cad511610071578063b3e7cad514610152578063b64580351461016e578063c85e766d1461019e578063d79dd7f1146101d6578063d92df53a14610206578063db84d4b114610222576100a9565b80633fe7cff7146100ae5780634dafd490146100ca5780638039b6ab146100e85780638da5cb5b1461011857806391de378d14610136575b600080fd5b6100c860048036038101906100c39190611035565b610252565b005b6100d261044d565b6040516100df91906112c8565b60405180910390f35b61010260048036038101906100fd9190611035565b610453565b60405161010f91906112c8565b60405180910390f35b610120610473565b60405161012d91906111d2565b60405180910390f35b610150600480360381019061014b919061105e565b610497565b005b61016c60048036038101906101679190610fba565b610765565b005b61018860048036038101906101839190611035565b610a9a565b60405161019591906111ed565b60405180910390f35b6101b860048036038101906101b39190611035565b610ac7565b6040516101cd999897969594939291906112e3565b60405180910390f35b6101f060048036038101906101eb9190611035565b610c0a565b6040516101fd91906112c8565b60405180910390f35b610220600480360381019061021b919061105e565b610c2a565b005b61023c60048036038101906102379190611035565b610e65565b60405161024991906112c8565b60405180910390f35b60006001600083815260200190815260200160002090508060040160009054906101000a900473ffffffffffffffffffffffffffffffffffffffff1673ffffffffffffffffffffffffffffffffffffffff163373ffffffffffffffffffffffffffffffffffffffff16146102fb576040517f08c379a00000000000000000000000000000000000000000000000000000000081526004016102f290611228565b60405180910390fd5b60016003811115610335577f4e487b7100000000000000000000000000000000000000000000000000000000600052602160045260246000fd5b8160050160149054906101000a900460ff16600381111561037f577f4e487b7100000000000000000000000000000000000000000000000000000000600052602160045260246000fd5b146103bf576040517f08c379a00000000000000000000000000000000000000000000000000000000081526004016103b690611248565b60405180910390fd5b60028160050160146101000a81548160ff0219169083600381111561040d577f4e487b7100000000000000000000000000000000000000000000000000000000600052602160045260246000fd5b02179055507fb8a1181e611cd339d66a250285063149695ae24028301ca27250f3d83ed526668260405161044191906112c8565b60405180910390a15050565b60025481565b600060016000838152602001908152602001600020600601549050919050565b60008054906101000a900473ffffffffffffffffffffffffffffffffffffffff1681565b60008054906101000a900473ffffffffffffffffffffffffffffffffffffffff1673ffffffffffffffffffffffffffffffffffffffff163373ffffffffffffffffffffffffffffffffffffffff1614610525576040517f08c379a000000000000000000000000000000000000000000000000000000000815260040161051c90611208565b60405180910390fd5b600060016000848152602001908152602001600020905060026003811115610576577f4e487b7100000000000000000000000000000000000000000000000000000000600052602160045260246000fd5b8160050160149054906101000a900460ff1660038111156105c0577f4e487b7100000000000000000000000000000000000000000000000000000000600052602160045260246000fd5b14610600576040517f08c379a00000000000000000000000000000000000000000000000000000000081526004016105f7906112a8565b60405180910390fd5b600073ffffffffffffffffffffffffffffffffffffffff168160050160009054906101000a900473ffffffffffffffffffffffffffffffffffffffff1673ffffffffffffffffffffffffffffffffffffffff1614610693576040517f08c379a000000000000000000000000000000000000000000000000000000000815260040161068a90611268565b60405180910390fd5b60038160050160146101000a81548160ff021916908360038111156106e1577f4e487b7100000000000000000000000000000000000000000000000000000000600052602160045260246000fd5b0217905550818160050160006101000a81548173ffffffffffffffffffffffffffffffffffffffff021916908373ffffffffffffffffffffffffffffffffffffffff1602179055507ffcfa3d14f3bea9f15e28ae962c0b8240d3315b7d4e151bed0d2bcb1ee3fd84628360405161075891906112c8565b60405180910390a1505050565b60008054906101000a900473ffffffffffffffffffffffffffffffffffffffff1673ffffffffffffffffffffffffffffffffffffffff163373ffffffffffffffffffffffffffffffffffffffff16146107f3576040517f08c379a00000000000000000000000000000000000000000000000000000000081526004016107ea90611208565b60405180910390fd5b6002600081548092919061080690611549565b919050555060405180610120016040528060025481526020018581526020018481526020013373ffffffffffffffffffffffffffffffffffffffff168152602001600073ffffffffffffffffffffffffffffffffffffffff168152602001600073ffffffffffffffffffffffffffffffffffffffff168152602001600060038111156108bb577f4e487b7100000000000000000000000000000000000000000000000000000000600052602160045260246000fd5b815260200183815260200182815250600160006002548152602001908152602001600020600082015181600001556020820151816001019080519060200190610905929190610e85565b506040820151816002015560608201518160030160006101000a81548173ffffffffffffffffffffffffffffffffffffffff021916908373ffffffffffffffffffffffffffffffffffffffff16021790555060808201518160040160006101000a81548173ffffffffffffffffffffffffffffffffffffffff021916908373ffffffffffffffffffffffffffffffffffffffff16021790555060a08201518160050160006101000a81548173ffffffffffffffffffffffffffffffffffffffff021916908373ffffffffffffffffffffffffffffffffffffffff16021790555060c08201518160050160146101000a81548160ff02191690836003811115610a36577f4e487b7100000000000000000000000000000000000000000000000000000000600052602160045260246000fd5b021790555060e0820151816006015561010082015181600701559050507f3420159122201bd6cbfa4b005d9f9fc50c501cbd79cb0cc38b918072ef33484f60025485858585604051610a8c959493929190611377565b60405180910390a150505050565b60006001600083815260200190815260200160002060050160149054906101000a900460ff169050919050565b6001602052806000526040600020600091509050806000015490806001018054610af0906114e6565b80601f0160208091040260200160405190810160405280929190818152602001828054610b1c906114e6565b8015610b695780601f10610b3e57610100808354040283529160200191610b69565b820191906000526020600020905b815481529060010190602001808311610b4c57829003601f168201915b5050505050908060020154908060030160009054906101000a900473ffffffffffffffffffffffffffffffffffffffff16908060040160009054906101000a900473ffffffffffffffffffffffffffffffffffffffff16908060050160009054906101000a900473ffffffffffffffffffffffffffffffffffffffff16908060050160149054906101000a900460ff16908060060154908060070154905089565b600060016000838152602001908152602001600020600001549050919050565b60008054906101000a900473ffffffffffffffffffffffffffffffffffffffff1673ffffffffffffffffffffffffffffffffffffffff163373ffffffffffffffffffffffffffffffffffffffff1614610cb8576040517f08c379a0000000000000000000000000000000000000000000000000000000008152600401610caf90611208565b60405180910390fd5b600060016000848152602001908152602001600020905060006003811115610d09577f4e487b7100000000000000000000000000000000000000000000000000000000600052602160045260246000fd5b8160050160149054906101000a900460ff166003811115610d53577f4e487b7100000000000000000000000000000000000000000000000000000000600052602160045260246000fd5b14610d93576040517f08c379a0000000000000000000000000000000000000000000000000000000008152600401610d8a90611288565b60405180910390fd5b60018160050160146101000a81548160ff02191690836003811115610de1577f4e487b7100000000000000000000000000000000000000000000000000000000600052602160045260246000fd5b0217905550818160040160006101000a81548173ffffffffffffffffffffffffffffffffffffffff021916908373ffffffffffffffffffffffffffffffffffffffff1602179055507fe1c52ed3626cb738a85e10a9270f242a0925f47c81b98bfd37ff3393720e1c3083604051610e5891906112c8565b60405180910390a1505050565b600060016000838152602001908152602001600020600701549050919050565b828054610e91906114e6565b90600052602060002090601f016020900481019282610eb35760008555610efa565b82601f10610ecc57805160ff1916838001178555610efa565b82800160010185558215610efa579182015b82811115610ef9578251825591602001919060010190610ede565b5b509050610f079190610f0b565b5090565b5b80821115610f24576000816000905550600101610f0c565b5090565b6000610f3b610f36846113f6565b6113d1565b905082815260208101848484011115610f5357600080fd5b610f5e8482856114a4565b509392505050565b600081359050610f7581611801565b92915050565b600082601f830112610f8c57600080fd5b8135610f9c848260208601610f28565b91505092915050565b600081359050610fb481611818565b92915050565b60008060008060808587031215610fd057600080fd5b600085013567ffffffffffffffff811115610fea57600080fd5b610ff687828801610f7b565b945050602061100787828801610fa5565b935050604061101887828801610fa5565b925050606061102987828801610fa5565b91505092959194509250565b60006020828403121561104757600080fd5b600061105584828501610fa5565b91505092915050565b6000806040838503121561107157600080fd5b600061107f85828601610fa5565b925050602061109085828601610f66565b9150509250929050565b6110a381611443565b82525050565b6110b281611492565b82525050565b60006110c382611427565b6110cd8185611432565b93506110dd8185602086016114b3565b6110e68161164e565b840191505092915050565b60006110fe602583611432565b91506111098261165f565b604082019050919050565b6000611121602683611432565b915061112c826116ae565b604082019050919050565b6000611144602083611432565b915061114f826116fd565b602082019050919050565b6000611167602c83611432565b915061117282611726565b604082019050919050565b600061118a602083611432565b915061119582611775565b602082019050919050565b60006111ad602283611432565b91506111b88261179e565b604082019050919050565b6111cc81611488565b82525050565b60006020820190506111e7600083018461109a565b92915050565b600060208201905061120260008301846110a9565b92915050565b60006020820190508181036000830152611221816110f1565b9050919050565b6000602082019050818103600083015261124181611114565b9050919050565b6000602082019050818103600083015261126181611137565b9050919050565b600060208201905081810360008301526112818161115a565b9050919050565b600060208201905081810360008301526112a18161117d565b9050919050565b600060208201905081810360008301526112c1816111a0565b9050919050565b60006020820190506112dd60008301846111c3565b92915050565b6000610120820190506112f9600083018c6111c3565b818103602083015261130b818b6110b8565b905061131a604083018a6111c3565b611327606083018961109a565b611334608083018861109a565b61134160a083018761109a565b61134e60c08301866110a9565b61135b60e08301856111c3565b6113696101008301846111c3565b9a9950505050505050505050565b600060a08201905061138c60008301886111c3565b818103602083015261139e81876110b8565b90506113ad60408301866111c3565b6113ba60608301856111c3565b6113c760808301846111c3565b9695505050505050565b60006113db6113ec565b90506113e78282611518565b919050565b6000604051905090565b600067ffffffffffffffff8211156114115761141061161f565b5b61141a8261164e565b9050602081019050919050565b600081519050919050565b600082825260208201905092915050565b600061144e82611468565b9050919050565b6000819050611463826117ed565b919050565b600073ffffffffffffffffffffffffffffffffffffffff82169050919050565b6000819050919050565b600061149d82611455565b9050919050565b82818337600083830152505050565b60005b838110156114d15780820151818401526020810190506114b6565b838111156114e0576000848401525b50505050565b600060028204905060018216806114fe57607f821691505b60208210811415611512576115116115f0565b5b50919050565b6115218261164e565b810181811067ffffffffffffffff821117156115405761153f61161f565b5b80604052505050565b600061155482611488565b91507fffffffffffffffffffffffffffffffffffffffffffffffffffffffffffffffff82141561158757611586611592565b5b600182019050919050565b7f4e487b7100000000000000000000000000000000000000000000000000000000600052601160045260246000fd5b7f4e487b7100000000000000000000000000000000000000000000000000000000600052602160045260246000fd5b7f4e487b7100000000000000000000000000000000000000000000000000000000600052602260045260246000fd5b7f4e487b7100000000000000000000000000000000000000000000000000000000600052604160045260246000fd5b6000601f19601f8301169050919050565b7f4f6e6c7920746865206f776e65722063616e2063616c6c20746869732066756e60008201527f6374696f6e000000000000000000000000000000000000000000000000000000602082015250565b7f4f6e6c7920706861726d6163792063616e207265636569766520746865206d6560008201527f646963696e650000000000000000000000000000000000000000000000000000602082015250565b7f4d65646963696e65206973206e6f7420696e205472616e736974207374617465600082015250565b7f4d65646963696e652068617320616c7265616479206265656e20736f6c64207460008201527f6f206120636f6e73756d65720000000000000000000000000000000000000000602082015250565b7f4d65646963696e65206973206e6f7420696e2043726561746564207374617465600082015250565b7f4d65646963696e65206973206e6f7420696e2044656c6976657265642073746160008201527f7465000000000000000000000000000000000000000000000000000000000000602082015250565b600481106117fe576117fd6115c1565b5b50565b61180a81611443565b811461181557600080fd5b50565b61182181611488565b811461182c57600080fd5b5056fea26469706673582212200f7b25cb30ad554da0dc988424cd3b2d6016a0788f4e1a91d96a19f023ed6ec664736f6c63430008020033",
  "immutableReferences": {},
  "source": "// SPDX-License-Identifier: MIT\r\npragma solidity ^0.8.0;\r\n\r\ncontract PharmacySupplyChain {\r\n    address public owner;\r\n\r\n    enum MedicineStatus { Created, InTransit, Delivered, Sold }\r\n\r\n    struct Medicine {\r\n        uint256 id;\r\n        string name;\r\n        uint256 quantity;\r\n        address manufacturer;\r\n        address pharmacy;\r\n        address consumer;\r\n        MedicineStatus status;\r\n        uint256 mfdDate;\r\n        uint256 expDate;\r\n    }\r\n\r\n    mapping(uint256 => Medicine) public medicines;\r\n    uint256 public medicineCount;\r\n\r\n    event MedicineCreated(uint256 id, string name, uint256 quantity, uint256 mfdDate, uint256 expDate);\r\n    event MedicineInTransit(uint256 id);\r\n    event MedicineDelivered(uint256 id);\r\n    event MedicineSold(uint256 id);\r\n\r\n    modifier onlyOwner() {\r\n        require(msg.sender == owner, \"Only the owner can call this function\");\r\n        _;\r\n    }\r\n\r\n    constructor() {\r\n        owner = msg.sender;\r\n    }\r\n\r\n    function createMedicine(string memory _name, uint256 _quantity, uint256 _mfdDate, uint256 _expDate) public onlyOwner {\r\n        medicineCount++;\r\n        medicines[medicineCount] = Medicine(medicineCount, _name, _quantity, msg.sender, address(0), address(0), MedicineStatus.Created, _mfdDate, _expDate);\r\n        emit MedicineCreated(medicineCount, _name, _quantity, _mfdDate, _expDate);\r\n    }\r\n\r\n    function startMedicineShipment(uint256 _id, address _pharmacy) public onlyOwner {\r\n        Medicine storage medicine = medicines[_id];\r\n        require(medicine.status == MedicineStatus.Created, \"Medicine is not in Created state\");\r\n        medicine.status = MedicineStatus.InTransit;\r\n        medicine.pharmacy = _pharmacy;\r\n        emit MedicineInTransit(_id);\r\n    }\r\n\r\n    function receiveMedicine(uint256 _id) public {\r\n        Medicine storage medicine = medicines[_id];\r\n        require(msg.sender == medicine.pharmacy, \"Only pharmacy can receive the medicine\");\r\n        require(medicine.status == MedicineStatus.InTransit, \"Medicine is not in Transit state\");\r\n        medicine.status = MedicineStatus.Delivered;\r\n        emit MedicineDelivered(_id);\r\n    }\r\n\r\n    function sellMedicine(uint256 _id, address _consumer) public onlyOwner {\r\n        Medicine storage medicine = medicines[_id];\r\n        require(medicine.status == MedicineStatus.Delivered, \"Medicine is not in Delivered state\");\r\n        require(medicine.consumer == address(0), \"Medicine has already been sold to a consumer\");\r\n        medicine.status = MedicineStatus.Sold;\r\n        medicine.consumer = _consumer;\r\n        emit MedicineSold(_id);\r\n    }\r\n\r\n    function getMedicineStatus(uint256 _id) public view returns (MedicineStatus) {\r\n        return medicines[_id].status;\r\n    }\r\n\r\n    function getMedicineMfdDate(uint256 _id) public view returns (uint256) {\r\n        return medicines[_id].mfdDate;\r\n    }\r\n\r\n    function getMedicineExpDate(uint256 _id) public view returns (uint256) {\r\n        return medicines[_id].expDate;\r\n    }\r\n\r\n     function getMedicineid(uint256 _id) public view returns (uint256) {\r\n        return medicines[_id].id;\r\n    }\r\n}",
  "sourcePath": "D:\\Hackathon\\Hackfest-2023\\Maybe-final-1am\\contracts\\PharmacySupplyChain.sol",
  "compiler": {
    "name": "solc",
    "version": "0.8.2+commit.661d1103.Emscripten.clang"
  },
  "schemaVersion": "3.4.16",
  "updatedAt": "2023-09-30T08:42:05.025Z",
  "networkType": "ethereum",
  "devdoc": {
    "kind": "dev",
    "methods": {},
    "version": 1
  },
  "userdoc": {
    "kind": "user",
    "methods": {},
    "version": 1
  }
}